:020000040800F2
:1000000098050020A90100086B1F0008A31900082B
:10001000691F00082D0500080924000800000000E1
:10002000000000000000000000000000F31F0008B6
:100030002F050008000000008D1F0008F51F0008B4
:10004000C3010008C3010008C3010008C301000880
:10005000C3010008C3010008C3010008C301000870
:10006000C3010008C3010008C3010008C301000860
:10007000C3010008C3010008C3010008C301000850
:10008000C3010008C3010008C3010008000000000C
:10009000000000000000000000000000C301000894
:1000A000C3010008C3010008C3010008C301000820
:1000B000C3010008C3010008C3010008C301000810
:1000C000C3010008C3010008C3010008C301000800
:1000D000C3010008C3010008C301000800000000BC
:1000E000C3010008C3010008C301000800000000AC
:1000F000000000000000000000000000C301000834
:1001000000000000C3010008C3010008C30100088B
:1001100000000000000000000000000000000000DF
:10012000C3010008C3010008C3010008C30100089F
:10013000C3010008000000000000000000000000F3
:10014000000000000000000000000000C3010008E3
:10015000C3010008C3010008C3010008C30100086F
:10016000C3010008C30100080000000000000000F7
:10017000000000000000000000000000000000007F
:1001800000000000C30100080000000000000000A3
:10019000C3010008DFF80CD000F0B6F900480047B2
:1001A00005270008980500200648804706480047B4
:1001B000FEE7FEE7FEE7FEE7FEE7FEE7FEE7FEE717
:1001C000FEE7FEE7A5200008950100082DE9F05F95
:1001D0000546002092469B468846064681464024B6
:1001E0001BE0284641464746224600F00EF953469A
:1001F0005A46C01A914110D311461846224600F0C3
:10020000F5F82D1A67EB01084F4622460120002120
:1002100000F0ECF817EB00094E41201EA4F1010498
:10022000DFDC484631462A464346BDE8F09F40EAB7
:1002300001039B0703D009E008C9121F08C0042A64
:10024000FAD203E011F8013B00F8013B521EF9D24B
:1002500070472DE9FE4F804681EA0300C00F0C462F
:10026000009021F0004123F00045B8EB0200A941C5
:1002700005D24046214690461C460B46024623F0D6
:100280000040104347D0270DC7F30A00C3F30A51BB
:100290000290401A019040286BDAC3F3130040F437
:1002A000801B0098924620B10023D2EB030A63EB37
:1002B0000B0B01985946C0F14002504600F096F8E9
:1002C00006460D4650465946019A00F0AEF810EB2E
:1002D00008006141002487EA115284EAE7731A4357
:1002E00040D0009A62B3019A012A4FEA075215DC06
:1002F000001B61EB02014FF0004202EA0752CDE918
:100300000042001C41F5801132462B4600F0AEF849
:1003100003B0BDE8F08F40462146F9E7001B61EBD2
:100320000201001C41F5801300185B412018A2F562
:10033000001747EB030140EAD570B6196D4111E093
:100340006D084FEA360645EAC0754FEA0752001BB2
:1003500061EB0201001C41F5801149084FEA3000B1
:100360000019514132462B4603B0BDE8F04F00F072
:100370006EB80098012240000023D0EB020263EB2C
:10038000E073009821464FEAE074B8EB000061EB9F
:100390000401E9E783F000435BE781F0004158E79F
:1003A0000EB540F2334102910021CDE900110A4619
:1003B0000B4600F05BF803B000BD000030B5041E32
:1003C00071F1000404DB4FF00044404264EB010192
:1003D000141E73F1000405DB1C464FF0004352422B
:1003E00063EB0403994208BF904230BD202A04DB2E
:1003F000203A00FA02F1002070479140C2F1200338
:1004000020FA03F3194390407047202A04DB203A76
:1004100021FA02F00021704721FA02F3D040C2F124
:1004200020029140084319467047202A06DBCB176B
:10043000203A41FA02F043EAE07306E041FA02F39F
:10044000D040C2F12002914008431946704710B5D0
:10045000141E73F1000408DA401C41F100019218E7
:100460005B411A4301D120F0010010BD2DE9F04D90
:1004700092469B4611B1B1FA81F202E0B0FA80F2E5
:1004800020329046FFF7B2FF04460F4640EA0A00CA
:1004900041EA0B0153465A46084313D0114653EA2A
:1004A000010019D0C8F140025046FFF7AEFF0546E3
:1004B0000E46504659464246FFF798FF084305D07E
:1004C000012004E020463946BDE8F08D00200543B8
:1004D00046EAE0762C4337430A986305E40AA0EB2A
:1004E00008000022FD0A44EA47540A3002D50020E1
:1004F0000146E9E7010510196941DDE908450019E0
:100500006941BDE8F04DA2E7064C074D06E0E06802
:1005100040F0010394E8070098471034AC42F6D34A
:10052000FFF73CFEB02E0008D02E0008FEE7704713
:1005300070B5044600F0D8F80546601C02D00448A7
:100540000078044400F0D0F8401BA042FAD370BDFC
:10055000280000202DE9F84FDFF860B100224FF0AD
:1005600001084FF0030A4FF00F090BF1040E00BF12
:100570000B6808FA02F42340A3426ED14D68022DA5
:1005800001D0122D0ED1D50800EB850CDCF82050DF
:100590005607F70E09FA07F6B5430E69BE402E431B
:1005A000CCF82060066855000F790AFA05FC07F0C0
:1005B000030726EA0C06AF40374307604E68012E5A
:1005C00005D0022E03D0112E01D0122E0ED1866836
:1005D000CF6826EA0C06AF40374387604668A643DB
:1005E0000C79C4F30014944034434460C6688C68AA
:1005F00026EA0C06AC403443C4604C68E40056D58F
:100600002F4C256845F480452560246822F00305B9
:1006100004F4804400942B4C2E19D6F80848950712
:100620002F0F09FA07F5AC43274DA84201D1002549
:1006300015E0264DA84201D1012510E0244DA84225
:1006400001D102250BE0234DA84201D1032506E08C
:10065000214DA84202D1042501E028E00725BD4034
:100660002543C6F80858DBF800405D464E689C43B9
:10067000F60300D51C432C60DEF8004075464E683A
:100680009C43B60300D51C432C600C4D08352C68E8
:100690004E689C43F60200D51C432C60074D0C3578
:1006A0002C684E689C43B60200D51C432C60521C3B
:1006B000102AFFF45DAFBDE8F88F0000003C014058
:1006C0004438024000300140000002400004024073
:1006D00000080240000C0240001002400AB1816193
:1006E00070470904FBE7000001488068704700007C
:1006F0002800002070B5040004D094F83D000025C7
:1007000010B106E0012070BD84F83C50204600F096
:10071000C1FA242084F83D002068016821F001011D
:10072000016000F019FD33492268B0FBF1F151601E
:10073000314A6368934206D94FF4967359434FF494
:100740007A73B1FBF3F12368491C19626168914225
:100750000BD84900B0FBF1F2C2F30B02042A01D21C
:10076000042019E0B0FBF1F016E0A3689BB301EBA5
:10077000C10202EB0112B0FBF2F242F48042120518
:1007800030D04BB301EBC10202EB0111B0FBF1F031
:1007900040F4804040F400402168C861D4E907017A
:1007A000084321680860D4E9031008432168886081
:1007B000D4E9050108432168C8602068016841F058
:1007C000010101602564202084F83D00256384F840
:1007D0003E50002070BD00E006E001EB4102B0FB9E
:1007E000F2F2CCE70120D7E701EB4101B0FBF1F0D9
:1007F000D0E7000040420F00A08601002DE9FF4F26
:1008000081B099468B4604464FF00108FFF76CFF14
:10081000054694F83D0020287BD1192301224D493B
:100820002046009501F0C1F9002872D194F83C00EF
:1008300001286ED0012084F83C0020680168C907B7
:1008400003D1016841F0010101602068016821F4D1
:1008500000610160242084F83D00002626643E48A3
:10086000E06220272068016841F4807101604B46F6
:1008700000224FF001112046009501F096F9002862
:1008800058D121680BF0FE000861FFF72DFF2168A9
:10089000054648694969C0F3400094F83D20C1F31A
:1008A00080214FF0A00A12E0B9F1000F04D0FFF749
:1008B0001BFF411B494501D984F83DA021684869C7
:1008C0004969C0F3400094F83D20C1F380210843FA
:1008D00001D1A02AE8D184F83D7020684169C9435C
:1008E000890717D4016841F40071016020684169EB
:1008F00080691923012217492046009501F055F916
:10090000C0B984F83D7084F83C60002005B0BDE8B3
:10091000F08F1DE0016841F40071016021686FF4FF
:1009200080604861192301220A492046009501F0A0
:100930003CF908B10320E9E74146039808F10108B2
:1009400081428FD384F83D7084F83C600120DDE75C
:100950000220DBE7020010000000FFFF2DE9FF4F3F
:1009600083B09A46DDE9118793460446DDF840904E
:10097000FFF7BAFE054694F83D00202874D11923EC
:10098000012272492046009501F00FF90028F5D1A7
:1009900094F83C00012867D0012084F83C002068CE
:1009A0000168C90703D1016841F0010101602068B5
:1009B000016821F400610160222084F83D0040209C
:1009C00084F83E0000262664C4F82490A4F82A8007
:1009D0005F48E062608D2085CDE9007553465A4638
:1009E0002046049900F0F2FF28B1206C84F83C60A6
:1009F000042843D076E0208DC8B1012820D00228F9
:100A0000206823D0416980690090208D03286BD82D
:100A100001282AD04F4902283B464FF0000200959A
:100A20005BD08846204601F0C0F8E8BB40E0206873
:100A3000416981690091016841F40071016076E0CB
:100A40002068016821F480610160F0E7016821F409
:100A5000806101602068016841F4006101602068E4
:100A600041698069009062E06EE02A46394620467E
:100A700001F010F930B1206C202833D0012007B0EC
:100A8000BDE8F08F206847E02068016841F40071FC
:100A9000016020680169606A421C62620170208DF9
:100AA000401E2085608D00E01CE0401E6085E9E767
:100AB0002068016821F48061016020680169606A32
:100AC000421C62620170208D401E2085608D401E98
:100AD00060853B46002241460095204601F065F8BE
:100AE0000028D1D00320CAE72A463946204601F023
:100AF000D1F80028BFD120680169606A421C626297
:100B00000170208D401E2085608D401E608520680C
:100B10004169C94349070AD40169606A421C62629B
:100B20000170208D401E2085608D401E6085208DC7
:100B300000287FF46AAF202084F83D0084F83E60EE
:100B400084F83C6000209AE7022098E70200100039
:100B50000000FFFF040001002DE9FF4F83B09A461B
:100B6000DDE9118793460446DDF84090FFF7BCFDB0
:100B7000064694F83D0020287DD1192301224349DF
:100B80002046009601F011F800287CD194F83C0032
:100B9000012878D0012084F83C0020680168C9074A
:100BA00003D1016841F0010101602068016821F46E
:100BB00000610160212084F83D00402084F83E005F
:100BC00000252564C4F82490A4F82A803048E06207
:100BD000608D2085CDE9007653465A46204604991B
:100BE00000F06CFF80B3206C84F83C50042848D09F
:100BF00008E032463946204601F07DF830B1206CDD
:100C0000042839D0032007B0BDE8F08F606A411C8A
:100C10006162216800780861208D401E80B22085C5
:100C2000618D491E618521684A69D24352070BD400
:100C300068B1606A421C626200780861208D401EC3
:100C40002085608D401E6085208D0028D1D13246E0
:100C50003946204600F082FF0028D0D154F83D0BE1
:100C6000016841F400710160202004F81E09E57755
:100C700065770020C7E706E02068016841F400714D
:100C800001600120BFE70220BDE700000200100064
:100C90000000FFFF2DE9F0412A4B026812250126D2
:100CA000032704212848294C86B09A420FD1CDE968
:100CB0000371C0228DE864006946FFF74BFC206891
:100CC00040F400102060206800F400101BE0204B6E
:100CD0009A421CD1CDE9037112158DE86400694672
:100CE0008046FFF737FC08208DE8E10009200490DA
:100CF00069464046FFF72EFC206840F480002060E3
:100D0000206800F48000059006B0BDE8F08111482D
:100D10008242F9D1884640158DE8E10169460E48C6
:100D2000FFF718FC4FF480708DE8E10169460B482D
:100D3000FFF710FC206840F400002060206800F4F9
:100D40000000E0E700540040000402404038024048
:100D500000580040005C00400008024000000240D3
:100D600002488168027811448160704728000020A1
:100D70000B4810B5016841F400710160016841F44D
:100D800080610160016841F480710160032000F01E
:100D90008BF8002000F006F800F024F8002010BDC9
:100DA000003C024070B50D4D04464FF47A7128782E
:100DB000B1FBF0F00A490968B1FBF0F000F024FD46
:100DC00048B9102C07D200222146501E00F04CF8E2
:100DD00000206C6070BD012070BD00002800002064
:100DE000340000201F4808B5016841F480410160CB
:100DF000006800F4804000901A48001F016841F02C
:100E000080510160006800F080500090032000F0E5
:100E10004BF8002211466FF00B0000F025F800227D
:100E200011466FF00A0000F01FF8002211466FF023
:100E3000090000F019F800221146501F00F014F8C4
:100E400000221146101F00F00FF800221146901EDC
:100E500000F00AF80022BDE808401146501E00F0DC
:100E600003B8000044380240F0B40E4B1B680C4637
:100E7000C3F30223C3F10705042D00D90425191D6E
:100E8000072901D2002300E0DB1E012606FA05F146
:100E9000491E214099409E40761E16403143F0BCC9
:100EA00001F064B80CED00E0064900F007020868A4
:100EB0004FF6FF03184040EA0220034A104308603F
:100EC000704700000CED00E00000FA052DE9F84342
:100ED000044600684FF00109C1074FF0000601D138
:100EE000400727D5DFF81C81C8F86860FFF7FCFBD6
:100EF0000746454D05E000BFFFF7F6FBC01B022883
:100F000057D828680001F7D460688101207A41EA47
:100F100000703D4984310860C8F86890FFF7E4FB31
:100F2000074604E0FFF7E0FBC01B022841D8286811
:100F30000001F7D52078800752D53348403001684A
:100F400041F0805101600068304D00F08050009009
:100F5000286840F480702860FFF7C6FB074604E06D
:100F6000FFF7C2FBC01B022823D82868C005F7D5AD
:100F7000254D7035286810F4407020D0A18901F407
:100F8000407181421BD0286820F440712048C0F88D
:100F90000090066029602868C00710D0FFF7A4FB06
:100FA000064641F2883707E0FFF79EFB801BB842F8
:100FB00002D90320BDE8F88328688007F4D5E168EA
:100FC0001148C1F301220830032A12D0016821F42C
:100FD000F81101602868A189C1F30B01084328605A
:100FE0002078000703D50B49207CC1F8E0010020E0
:100FF000E0E70268084B22F4F81219400A43026045
:10100000E8E700000000474200380240007000405E
:10101000400E474200104742FFFCFF0F2DE9F0470A
:101020000E46050065D0DFF81481D8F80000F7B24D
:1010300000F00F00B04207D288F80070D8F8000026
:1010400000F00F00B04254D128683D4C810712D502
:10105000400703D5206840F4E0502060287800075E
:1010600003D5206840F4604020602068A96820F023
:10107000F000084320602878C0072DD03049686808
:101080000839012812D0022813D0032811D009688A
:10109000890700292DDA216821F00301014321602D
:1010A000FFF722FB814641F2883A0EE00968890386
:1010B000EFE709688901ECE7FFF716FBA0EB0901F0
:1010C000514502D90320BDE8F0872068696800F027
:1010D0000C00B0EB810FEFD1D8F80010404601F0C2
:1010E0000F01B14207D90770006800F00F00B0424D
:1010F00001D00120E7E72878400705D52068E96896
:1011000020F4E050084320602878000706D52068C6
:10111000296920F4604040EAC100206000F03CF8FA
:101120002168084AC1F30311515CC84006490860B0
:101130000020FFF737FE0020C5E70000003C02401A
:1011400008380240982E000834000020014800684A
:101150007047000034000020044805490068096811
:10116000044AC1F38221515CC8407047340000201A
:1011700008380240A82E000804480549006809689C
:10118000044AC1F34231515CC8407047340000202A
:1011900008380240A82E0008154810B5006810F065
:1011A0000C02144813D01449042A0FD0082A0ED177
:1011B0000F4C241F2268236802F03F025B0207D510
:1011C0002068C0F38810A0FB010106E0084610BDAE
:1011D0002168C1F38811A1FB00010023FEF7F6FF8F
:1011E0002168C1F30141491C4900B0FBF1F010BD79
:1011F000083802400024F40040787D012DE9F84FC2
:10120000050076D02878DFF8F8B2BE4CC00749D088
:10121000DBF800105846C1F38101012908D00068AD
:10122000C0F3810002280AD1201D0068400206D5C3
:101230002068800336D568680028E2D032E068680C
:10124000B0F5803F10D0B0F5A02F206810D020F46A
:1012500080302060206820F4802020606868A0B181
:10126000FFF742FA06460CE0206840F48030F4E7CD
:1012700040F480202060F7E7FFF736FA801B6428EF
:1012800073D820688003F7D50CE0FFF72DFA0646E7
:1012900005E000BFFFF728FA801B6428F0D820681B
:1012A0008003F7D42878DFF8608280074FF00009C8
:1012B0003ED5DBF80010584611F00C0F09D000683D
:1012C000C0F3810002280BD18D48001F0068400246
:1012D00006D42068800715D5E868012809D111E0F7
:1012E000E868B8B10120C8F80000FFF7FDF906462C
:1012F00005E002E1FFF7F8F9801B0228C0D820685A
:101300008007F7D52068296920F0F80040EAC1007D
:1013100020600DE0C8F80090FFF7E6F9064604E00B
:10132000FFF7E2F9801B02281FD820688007F7D456
:101330002878000722D5724E744869696C3671B1FD
:1013400001210160FFF7D0F9074604E0FFF7CCF96F
:10135000C01B022809D830688007F7D50EE0C0F816
:101360000090FFF7C1F9074605E083E0FFF7BCF9FD
:10137000C01B02287ED830688007F7D42878400741
:1013800068D5DFF87CA100270AF1380ADAF80000F6
:10139000C0000BD4DAF8001041F08051CAF80010F8
:1013A000DAF80000012700F080500090584E3068B5
:1013B000C00510D4306840F480703060FFF794F9B5
:1013C000009005E0FFF790F90099401A022851D8E3
:1013D0003068C005F6D54A4EA868683601280FD097
:1013E0000528306810D020F001003060306820F00F
:1013F00004003060A868B8B1FFF776F900900FE0FC
:10140000306840F00100F4E740F004003060F7E796
:10141000FFF76AF90099411A41F28830814264D895
:1014200030688007F4D50EE0FFF75EF9009007E022
:10143000FFF75AF90099411A41F28830814254D895
:1014400030688007F4D42FB1DAF8001021F0805111
:10145000CAF80010A869C0B3DBF80010C1F381011D
:1014600002294AD00228484607D0C8F86000FFF792
:101470003BF900E039E005463AE04746C8F860002D
:10148000FFF732F9064604E0FFF72EF9801B022829
:101490002BD820688001F7D4D5E907010843A96A51
:1014A0001C4A490802EB01416A6A41EA8211084379
:1014B00095F82C1040EA01611148001F01600120DD
:1014C0003866FFF711F9054605E014E0FFF70CF95F
:1014D000401B022809D820688001F7D50BE000BF27
:1014E000FFF702F9401B022802D90320BDE8F88F5C
:1014F00020688001F4D40020F8E70120F6E700001E
:10150000083802400038024000004742800E47423F
:10151000007000400000FFFF70B5040002D0607F43
:1015200010B106E0012070BD00202077204600F0B9
:1015300049F8022060772168CA2048622168532058
:101540004862204600F038FDFF25042618BB2068BD
:1015500081681B4A11408160216888686268104375
:10156000D4E904231A43104388602168E0680861C5
:1015700020680169228941EA024101612068C1684D
:1015800021F08001C16020688068800607D4204671
:1015900000F012F918B1206845626677C2E720684A
:1015A000016C21F4802101642068016CA26911435F
:1015B00001642068456201206077002070BD000052
:1015C000BFFF8FFF00B500680A4985B088420ED181
:1015D000094901200860C00300900220019000200A
:1015E00002900390049069460448FEF7B3FF05B0EB
:1015F00000BD0000002800403C0E474200040240AD
:101600002DE9F0470446007F0B4601281FD04FF01C
:10161000010984F81C9002206077DAB19878D978B3
:1016200040EA014558781978000240EA4130054304
:101630002168CA204862216853204862204600F091
:10164000BBFC0026FF274FF0040860BB1AE0022015
:10165000BDE8F0875878C10603D500F0EF000A30E6
:101660005870D87800F09CFC0204587800F098FC80
:1016700042EA0022987800F093FC0243187842EA8C
:101680004035D5E70F480540206845602068C168AF
:1016900021F08001C1602068806880060AD420465D
:1016A00000F08AF830B12068476284F81D80267700
:1016B0000120CDE72068476284F81D90267700203E
:1016C000C6E700003FFFFF002DE9F0470446007F1A
:1016D0000D46012811D04FF0010A84F81CA0022009
:1016E00060772068002680684FEA406042B1002899
:1016F0001ADA287800F04BFC17E00220BDE8F087EA
:10170000002800DBEE70287800F04AFC02046878BC
:1017100000F046FC42EA0022A87800F041FC0243B7
:10172000E87842EA00470AE0EE70A878297840EAB3
:1017300001476878E978000240EA014007432168E0
:10174000CA204862216853204862204600F034FCD9
:101750004FF0FF084FF00409E0B916480740206831
:1017600007602068816821F480218160D5E9030148
:10177000084321688A68104388602068C16821F0A6
:101780008001C1602068806880060BD4204600F08C
:1017900013F838B12168C1F8248084F81D902677A9
:1017A0000120ABE72168C1F8248084F81DA02677CA
:1017B0000020A3E77F7F7F0070B504460068C16802
:1017C00021F0A001C160FEF78FFF05464FF47A7645
:1017D00007E000BFFEF788FF401BB04201D903209D
:1017E00070BD2068C0688006F4D5002070BD4FF041
:1017F000E0210428086903D020F004000861704744
:1018000040F00400FAE7704710B5401EB0F1807F49
:1018100001D3012010BD4FF0E02460610F2160175B
:1018200000F0A4FB0020A06107202061002010BD73
:1018300010B5FFF7E8FF10BD70B5040004D094F8B0
:101840003900002510B106E0012070BD84F8385041
:10185000204600F023F8242084F839002068C1686D
:1018600021F40051C160204600F046FC2068016967
:1018700021F4904101612068416921F02A01416110
:101880002068C16841F40051C160E563202084F8FC
:10189000390084F83A00002070BD000000B50068EF
:1018A0000E4987B0884216D10D48016841F40031D5
:1018B00001600068694600F4003005900C2000903B
:1018C0000220019001200290032003900720049041
:1018D0000448FEF73FFE07B000BD00000044004092
:1018E00040380240000002402DE9F843044690F8D9
:1018F00039001F4616460D46202850D1A5B19EB18D
:1019000094F8380001284AD0012084F838004FF0BC
:101910000008C4F83C80212084F83900FEF7E4FE7A
:10192000A6848146E68426E00120BDE8F883E08CA9
:10193000401EE084A0684B46B0F5805F4FF0000287
:101940004FF080012046009703D000F02BFDE8B94E
:101950000DE000F027FDC8B928882168C0F3080011
:101960004860206908B16D1C05E0AD1C03E02168EA
:1019700015F8010B4860E08C0028D8D14B460022B6
:1019800040212046009700F00DFD08B10320CCE770
:10199000202084F8390084F838800020C5E7022030
:1019A000C3E7FEE701684A69D24352050CD46FF4DD
:1019B00080624A6104210164002140F8301F202226
:1019C0004273017301207047002070472DE9F84FE2
:1019D0000446006889460B9D01689846174641F405
:1019E000806101602068016841F4807101600095A8
:1019F0004FF0011A0022514620460A9B00F0D5F80C
:101A0000F0BB216809F0FE0008610AF1010B2B46CA
:101A1000594620460A9A00F0F9F818B1206C0428BB
:101A200012D03AE020684169806900902A46204639
:101A30000A9900F060F950B1206C04282DD120687B
:101A4000016841F4007101600120BDE8F88FFEB229
:101A5000B8F1010F09D02168380A08612A462046EA
:101A60000A9900F048F90028E6D1206806612A4664
:101A700020460A9900F03FF90028DDD1206800E0F7
:101A80000BE0016841F4807101600095002251462D
:101A900020460A9B00F089F808B10320D5E72168A9
:101AA00009F0FF0040F0010008612B46594620462E
:101AB0000A9A00F0ABF80028B0D1C6E72DE9F84348
:101AC000044600680D46DDE9089701689846164609
:101AD00041F4807101604B4600224FF00111204615
:101AE000009700F062F8E8B9216805F0FE0008618F
:101AF0003B464A461849204600F088F828B1206C39
:101B000004280FD10120BDE8F8832068416980696D
:101B100000903A464946204600F0EDF820B1206C8E
:101B2000042813D00320EEE7F5B2B8F1010F09D075
:101B30002168300A08613A464946204600F0DBF841
:101B40000028ECD1206805610020DCE720680168EE
:101B500041F400710160D5E70200010070B516463E
:101B60000D4604461AE02046FFF71CFF08B101208D
:101B700070BD681C12D025B1FEF7B6FD801BA842CF
:101B80000CD954F8400F40F0200044F81009002010
:101B90002060202161732073032070BD206840699C
:101BA000C0434007DFD4002070BD2DE9F0471E463A
:101BB00090460D460446C1F30747DDF8209012E039
:101BC000701C10D02EB1FEF78FFDA0EB0900B042C3
:101BD00009D9002044F8300F20216173A0732073CD
:101BE0000320BDE8F0872068012F0AD0806925EA2C
:101BF00000000004000C06D000214145E0D0002088
:101C0000EFE74069F3E70121F7E700002DE9F0472E
:101C10009A4691460D46044600264FF02008C1F32F
:101C200007472AE020684069C043400512D4206875
:101C3000016841F40071016021686FF480604861BF
:101C400004202064266384F83D8084F83C600120F1
:101C5000BDE8F087B9F1FF3F0FD0B9F1000F05D013
:101C6000FEF742FDA0EB0A01494506D944F8306F62
:101C700084F80D8026730320EAE72068012F07D03F
:101C8000D0F8180025EA00000004000CE0D0C9E7F5
:101C90004069F7E72DE9F041002590460E460446DD
:101CA000202721E04069C043C0060CD421686FF0B2
:101CB000100048612564256384F83D7084F83C5029
:101CC0000120BDE8F0812EB1FEF70EFDA0EB08006B
:101CD000B04209D954F8400F40F0200044F80409FC
:101CE000677025700320ECE720684169C943490605
:101CF000D8D40020E5E770B516460D4604461AE034
:101D00002046FFF74FFE08B1012070BD681C12D0BD
:101D100025B1FEF7E9FC801BA8420CD954F8400F0E
:101D200040F0200044F81009002020602021617359
:101D30002073032070BD20684069C0430006DFD4D3
:101D4000002070BD2DE9F0432D4895B000240168B6
:101D500041F001010160016801F001011491016885
:101D600041F002010160016801F002011491016873
:101D700041F0040101600068DFF8888000F0040091
:101D80004FF400751490002229464046FEF7A6FC49
:101D90006E00002231464046FEF7A0FCDFF8689056
:101DA000002280214846FEF799FC6F100022394638
:101DB0004846FEF793FC00950125CDE9015469469C
:101DC00040460394FEF7C6FBCDE90654059605A9E7
:101DD00040460894FEF7BEFB80200A90CDE90B54E4
:101DE0000AA948460D94FEF7B5FBCDE910540F97AC
:101DF0000FA948461294FEF7ADFB15B0BDE8F0837D
:101E00003038024000000240000802400C4810B583
:101E10000A4901600B494FF4804209684160002182
:101E20008160C0E9031241618161C1610162FEF715
:101E300061FC002800D0FEE710BD00000054004007
:101E400038000020000000200C4810B50A4901604D
:101E50000B494FF480420968416000218160C0E96C
:101E6000031241618161C1610162FEF743FC0028F8
:101E700000D0FEE710BD0000005800408C0000209C
:101E8000000000200C4810B50A4901600B494FF4CE
:101E900080420968416000218160C0E9031241610C
:101EA0008161C1610162FEF725FC002800D0FEE7D8
:101EB00010BD0000005C0040E00000200000002099
:101EC00010B51A4886B018490024C0E900147F21D3
:101ED0008160FF21C0E9031444618461FFF71CFBAA
:101EE00000B1FEE78DF800408DF801408DF802400A
:101EF0000394012269460D480494FFF7E5FB00B105
:101F0000FEE701208DF814008DF815008DF81600FD
:101F100002468DF8174005A90448FFF771FB002819
:101F200000D0FEE706B010BD0028004034010020BC
:101F30000B4810B5094901600A490C224968416003
:101F400000218160C160C0E904128161C161FFF7B5
:101F500073FC002800D0FEE710BD000000440040E4
:101F60005401002000000020FEE770470907090E19
:101F7000002806DA00F00F0000F1E02080F8141DC0
:101F8000704700F1E02080F80014704770470109A5
:101F900001EB810100F00F0000EB4100C0B270477F
:101FA000002102E00A38C0B2491C0A28FAD2090707
:101FB00040EA11607047000070B504460068C168CF
:101FC000490614D44FF0FF31C160FEF78DFB054682
:101FD0004FF47A7607E000BFFEF786FB401BB04265
:101FE00001D9032070BD2068C0684006F4D50020E8
:101FF00070BD704710B5FEF7B3FEBDE81040FFF7A7
:1020000017BC000010B5254898B00024016841F0C5
:1020100080510160006800F08050169020480168EF
:1020200021F4404141F4004101600068102100F4B6
:10203000404016900A2000900120CDE90301CDE92F
:1020400005046846FFF7DAF800B1FEE70F20CDE996
:102050000C040E940F9400210CA81094FEF7DEFFE0
:1020600000B1FEE7022011900002149011A8FEF7C3
:102070002DFF00B1FEE7FFF769F84FF47A71B0FB6E
:10208000F1F0FFF7C1FB0420FFF7B1FB002211467E
:10209000501EFEF7E9FE18B010BD000040380240A7
:1020A000007000401048016841F4700101600F4861
:1020B000016841F0010101600C4A00210832116001
:1020C00002680B4B1A400260031D0A4A1A6002683C
:1020D00022F48022026005480C3001600249580653
:1020E000803908607047000088ED00E00038024049
:1020F000FFFFF6FE103000242DE9F0410446006891
:10210000016921F44052E168114301612168C86806
:1021100049F20C6290432369A268E5691A43636936
:102120002B431A430243CA602168486920F4407275
:10213000A06910434861E1696425B1F5004F9748F3
:10214000974A21684FF032083FD0914201D0814236
:102150007CD1FFF711F800EBC00101EB00106168C2
:102160008900B0FBF1F6FFF707F800EBC00101EBC7
:10217000001061688900B0FBF1F0B0FBF5F06FF082
:102180001801484306EB800108EB0110B0FBF5F0A5
:1021900000F0F006FEF7F0FF00EBC00101EB0010CD
:1021A00061688900B0FBF1F0B0FBF5F006EB0016BA
:1021B000FEF7E2FF00EBC00101EB0010616889004F
:1021C000B0FBF1F7FEF7D8FFD2E0914201D0814297
:1021D0003DD1FEF7D1FF00EBC00101EB00106168BB
:1021E0004900B0FBF1F0B0FBF5F00601FEF7C4FFCB
:1021F00000EBC00101EB001061684900B0FBF1F792
:10220000FEF7BAFF00EBC00101EB00106168490066
:10221000B0FBF1F0B0FBF5F06FF01801484307EBAD
:10222000800108EBC100B0FBF5F000F0F80006EB10
:102230004006FEF7A1FF00EBC00101EB0010616852
:102240004900B0FBF1F7FEF797FF3CE055E0FEF7E1
:1022500083FF00EBC00101EB001061684900B0FB97
:10226000F1F0B0FBF5F00601FEF776FF00EBC001E0
:1022700001EB001061684900B0FBF1F7FEF76CFF5D
:1022800000EBC00101EB001061684900B0FBF1F008
:10229000B0FBF5F06FF01801484307EB800108EB45
:1022A000C100B0FBF5F000F0F80006EB4006FEF7C9
:1022B00053FF00EBC00101EB001061684900B0FB67
:1022C000F1F7FEF749FF00EBC00101EB0010616878
:1022D0004900B0FBF1F0B0FBF5F06FF01801484396
:1022E00007EB800108EBC100B0FBF5F000F0070040
:1022F000216830448860BDE8F081FEF72DFF00EBD7
:10230000C00101EB001061688900B0FBF1F6FEF737
:1023100023FF00EBC00101EB001061688900B0FBF6
:10232000F1F0B0FBF5F06FF01801484306EB8001C7
:1023300008EB0110B0FBF5F000F0F006FEF70CFF23
:1023400000EBC00101EB001061688900B0FBF1F007
:10235000B0FBF5F006EB0016FEF7FEFE00EBC00149
:1023600001EB001061688900B0FBF1F7FEF7F4FEA5
:1023700000EBC00101EB001061688900B0FBF1F0D7
:10238000B0FBF5F06FF01801484307EB800108EB54
:102390000110B0FBF5F000F00F00A9E700140140B8
:1023A000001001402DE9F041984617460E460446BC
:1023B000069D1DE0681C1BD02DB1FEF795F9A0EB22
:1023C0000800A84214D92068C16821F4D071C16006
:1023D0002068416921F001014161202084F8390021
:1023E00084F83A00002084F838000320BDE8F0812A
:1023F0002068006836EA000004D00020B842D9D036
:102400000020F3E70120F9E7FEE702E008C8121F09
:1024100008C1002AFAD170477047002001E001C1CD
:10242000121F002AFBD170470FB47FB512A01D9E6A
:10243000006810254FF0FF340390234601223146F7
:1024400008A8FEF7DBF90028F7D1042003A9CDE99D
:10245000001001232A460294314608A8FEF77CFBAF
:1024600023460122314608A8FEF7C8F90028F7D113
:102470007FBC5DF814FB0000A8A804820FB4002004
:1024800070B588B0441EDDE9216503900490059085
:1024900006902346012231460CA8FEF7AFF900282A
:1024A000F7D10E2003A9CDE9001001232A4602949A
:1024B00031460CA8FEF752FA23460E2203A90D4816
:1024C000FFF712FA234603220BA10A48FFF70CFA82
:1024D0009DF80F00FDF764FF084CC4E906019DF864
:1024E0001000FDF75DFFC4E9080108B070BC5DF89D
:1024F00014FB0000540100200D0A00000000002021
:102500000FB42DE9FF475EA0DDF884900068202716
:102510004FF0FF3403902346012249460CA8FEF7F2
:102520006DF90028F7D1012503AE0096CDE90154DD
:102530002B463A4649460CA8FEF70EFB23460122DD
:1025400049460CA8FEF75AF90028F7D121276C203C
:102550008DF80C002346012249460CA8FEF74EF9DF
:102560000028F7D10096CDE9015401233A464946A7
:102570000CA8FEF7F1FA2346012249460CA8FEF703
:102580003DF90028F7D16420FDF7D2FF00274FF076
:1025900021088DF80C702346012249460CA8FEF74D
:1025A0002DF90028F7D10096CDE9015401234246C8
:1025B00049460CA8FEF7D0FA2346012249460CA84A
:1025C000FEF71CF90028F7D14FF022088DF80C70A7
:1025D0002346012249460CA8FEF710F90028F7D13E
:1025E0000096CDE901540123424649460CA8FEF766
:1025F000B3FA2346012249460CA8FEF7FFF800284B
:10260000F7D123270C208DF80C00234601224946E0
:102610000CA8FEF7F3F80028F7D10096CDE9015495
:1026200001233A4649460CA8FEF796FA23460122B2
:1026300049460CA8FEF7E2F80028F7D124278020AD
:102640008DF80C002346012249460CA8FEF7D6F867
:102650000028F7D10096CDE9015401233A464946B6
:102660000CA8FEF779FA2346012249460CA8FEF78A
:10267000C5F80028F7D1BDE8FF075DF814FB00009E
:10268000FE0000000FB4002070B586B0441EDDE9E6
:102690001F65039004902346012231460AA8FEF7E5
:1026A000ADF80028F7D1082003A9CDE900100123D7
:1026B0002A46029431460AA8FEF750F9234608221A
:1026C00003A90D48FFF710F9234603220BA10A487E
:1026D000FFF70AF99DF81300FDF762FE084CC4E904
:1026E00002019DF80C00FDF75BFEC4E9040106B091
:1026F00070BC5DF814FB0000540100200D0A0000BE
:10270000000000202DED048BADF50E7DFEF730FBB3
:10271000FFF778FCFFF7D4FBFFF714FBFFF776FB1E
:10272000FFF792FBFFF7AEFBFFF702FC1E20FDF761
:10273000FFFE4FF0200A4FF028094FF0D4083C2745
:102740002A22FE496AA8FDF772FDFC4C608DADF8A7
:10275000D20154F82C0F759060687690F7490922E1
:10276000343177A88D91FDF762FD607C8DF8E5012D
:10277000A07C8DF8E60160697A90A0697B90E069A1
:102780007C90206A7D90606A7E9044226EA96846A3
:102790001197FDF74CFD0DF5D47C9CE80F00FFF779
:1027A000AFFEE6492A2254316AA8FDF740FDE34D09
:1027B0005435688DADF8D20155F82C0F75906868C6
:1027C0007690DE490922883177A88C91FDF72FFD9C
:1027D000687C8DF8E501A87C8DF8E60168697A903F
:1027E000A8697B90E8697C90286A7D90686A7E90F1
:1027F00044226EA968461197FDF719FD0DF5D47CAA
:102800009CE80F00FFF77CFECC492A22A8316AA879
:10281000FDF70DFDC94EA836708DADF8D20156F802
:102820002C0F759070687690C4490922DC3177A826
:102830008B91FDF7FCFC707C8DF8E501B07C8DF888
:10284000E60170697A90B0697B90F0697C90306A9B
:102850007D90706A7E9044226EA968461197FDF7BC
:10286000E6FC0DF5D47C9CE80F00FFF749FE2A2218
:10287000B2496AA8FDF7DBFC34F8020CADF8D201CE
:102880002068759060687690092277A88D99FDF789
:10289000CEFC607C8DF8E501A07C8DF8E6016069D6
:1028A0007A90A0697B90E0697C90206A7D90606A54
:1028B0007E9044226EA96846CDF84480FDF7B7FCAF
:1028C0000DF5D47C9CE80F00FFF7AEFD9B492A2252
:1028D00054316AA8FDF7ABFC35F8020CADF8D20113
:1028E0002868759068687690092277A88C99FDF71A
:1028F0009EFC687C8DF8E501A87C8DF8E60168698E
:102900007A90A8697B90E8697C90286A7D90686AD3
:102910007E9044226EA96846CDF84480FDF787FC7E
:102920000DF5D47C9CE80F00FFF77EFD83492A2239
:10293000A8316AA8FDF77BFC36F8020CADF8D2018D
:102940003068759070687690092277A88B99FDF7AA
:102950006EFC707C8DF8E501B07C8DF8E601706945
:102960007A90B0697B90F0697C90306A7D90706A53
:102970007E9044226EA96846CDF84480FDF757FC4E
:102980000DF5D47C9CE80F00FFF74EFD9FED6C9B8E
:1029900076A96DA8CDE98901CDE98701CDE9850149
:1029A00076A86DA9CDE9831076A96DA8B0EE498A05
:1029B000F0EE698ACDE98101CDE97F012A225F49E4
:1029C00069A8FDF734FC5D4C608DADF8CE0154F87C
:1029D0002C0F74906068759009228D998A98FDF784
:1029E00026FC607C8DF8E101A07C8DF8E201606935
:1029F0007990A0697A90E0697B90206A7C90606A07
:102A00007D90CDE91179442268468999FDF70FFC44
:102A10000DF5D27C9CE80F00FFF734FE47492A22CF
:102A2000543169A8FDF703FC444D5435688DADF869
:102A3000CE0155F82C0F74906868759009228C9916
:102A40008898FDF7F4FB687C8DF8E101A87C8DF88F
:102A5000E20168697990A8697A90E8697B90286AB0
:102A60007C90686A7D90CDE9117944226846879907
:102A7000FDF7DDFB0DF5D27C9CE80F00FFF702FEB1
:102A80002E492A22A83169A8FDF7D1FB2B4EA83682
:102A9000708DADF8CE0156F82C0F7490706875905B
:102AA00009228B998698FDF7C2FB707C8DF8E101B5
:102AB000B07C8DF8E20170697990B0697A90F06924
:102AC0007B90306A7C90706A7D90CDE911794422C8
:102AD00068468599FDF7ABFB0DF5D27C9CE80F00AD
:102AE000FFF7D0FD2A22154969A8FDF7A0FB34F8AD
:102AF000020CADF8CE0120687490606875900922D0
:102B00008D998498FDF793FB607C8DF8E101A07CA2
:102B10008DF8E20160697990A0697A90E0697B9014
:102B2000206A7C90606A7D90CDE9118A44226846D3
:102B30008399FDF77CFB0DF5D27C05E03800002081
:102B400000000000000000009CE80F00FFF796FC6A
:102B50002A22C84969A8FDF76AFB35F8020CADF8CE
:102B6000CE01286874906868759009228C998298C3
:102B7000FDF75DFB687C8DF8E101A87C8DF8E20132
:102B800068697990A8697A90E8697B90286A7C9056
:102B9000686A7D90CDE9118A442268468199FDF7E3
:102BA00046FB0DF5D27C9CE80F00FFF767FCB149AE
:102BB0002A22543169A8FDF73AFB36F8020CADF829
:102BC000CE01306874907068759009228B99809856
:102BD000FDF72DFB707C8DF8E101B07C8DF8E201F2
:102BE00070697990B0697A90F0697B90306A7C90D6
:102BF000706A7D90CDE9118A442268467F99FDF77D
:102C000016FB0DF5D27C9CE80F00FFF737FC002483
:102C1000661E7E9497483346012239465438FDF7A4
:102C2000EDFD0028F6D101257EA88DE861009148D0
:102C30002B460F2239465438FDF790FE8D48334617
:102C400001227EA9C830FEF74FFE8A483346032290
:102C500089A1C830FEF748FE8DF8F84133460122BD
:102C600039468448FDF7CAFD0028F7D1B3467EAE49
:102C7000CDE9006501230F2239467E48CDF808B022
:102C8000FDF76CFE7B485B4601227EA9C830FEF74B
:102C90002BFE78485B46032277A1C830FEF724FE5E
:102CA0008DF8F84173485B46012239465430FDF7F0
:102CB000A5FD0028F6D17EAA8DE824086D480123E1
:102CC0000F2239465430FDF749FE6A485B4601221F
:102CD0007EA9C830FEF708FE66485B46032266A15F
:102CE000C830FEF701FE8DF8F8415E466148334674
:102CF000012241465438FDF781FD0028F6D17EA817
:102D00008DE861005B4801230F2241465438FDF7EE
:102D100025FE5848334601227EA9C830FEF7E4FD5F
:102D200054483346032254A1C830FEF7DDFDA346C4
:102D30008DF8F84134462346012241464D48FDF7BF
:102D40005DFD0028F7D17EAE0096CDE90154012348
:102D50000F2241464748FDF701FE4648234601221F
:102D60007EA9C830FEF7C0FD42482346032242A197
:102D7000C830FEF7B9FD8DF8F8B13E482346012270
:102D800041465430FDF73AFD0028F6D10096394807
:102D9000CDE9015401230F2241465430FDF7DEFDF9
:102DA0003448234601227EA9C830FEF79DFD3148F4
:102DB0002346032230A1C830FEF796FD9FED2F0B6E
:102DC00051EC180B53EC102BFDF743FA2D4C41EC52
:102DD000180B94ED020B53EC102BFDF7EFFA01D218
:102DE000012200E000224FF400712748FDF776FC35
:102DF00094ED040B51EC180B53EC102BFDF7DEFA9D
:102E000001D2012200E000224FF480611E48FDF74C
:102E100065FC94ED060B51EC180B53EC102BFDF7F1
:102E2000CDFA01D2012200E0002280211748FDF7EF
:102E300055FC94ED080B51EC180B53EC102BFDF7DF
:102E4000BDFA01D2012200E000224FF480710F4848
:102E5000FDF744FC9FED0E0B51EC180B53EC102BBF
:102E6000FDF7ACFABFF4AAADB0EE498AF0EE698A7C
:102E7000A4E500008C0000200D0A00000000000006
:102E80000000F03F00000020000002400008024067
:102E90000000000000E06F400000000000000000A3
:102EA00001020304060708090000000001020304F0
:102EB000D02E000800000020380000000A2400087E
:102EC000082F000838000020600500001A240008C0
:102ED000C027090000100E000000000000000000E4
:102EE00000000000000000000000000000000000E2
:102EF00000000000000000000100000010000000C1
:082F0000000000000024F400B1
:040000050800019559
:00000001FF
