:020000040800F2
:10000000C042002065020008871400084112000861
:100010008514000871030008D518000800000000CE
:10002000000000000000000000000000A90100081E
:100030007303000800000000FD010008131500080C
:100040007F0200087F0200087F0200087F0200088C
:100050007F0200087F0200087F0200087F0200087C
:100060007F0200087F0200087F0200087F0200086C
:100070007F0200087F0200087F0200087F0200085C
:100080007F0200087F0200087F02000800000000D5
:100090000000000000000000000000007F020008D7
:1000A0007F0200087F0200087F0200087F0200082C
:1000B0007F0200087F0200087F0200087F0200081C
:1000C0007F0200087F0200087F0200087F0200080C
:1000D0007F0200087F0200087F0200080000000085
:1000E0007F0200087F0200087F0200080000000075
:1000F0000000000000000000000000007F02000877
:10010000000000007F0200087F0200087F02000854
:1001100000000000000000000000000000000000DF
:100120007F0200087F0200087F0200087F020008AB
:100130007F02000800000000000000000000000036
:100140000000000000000000000000007F02000826
:100150007F0200087F0200087F0200087F0200087B
:100160007F0200087F02000800000000000000007D
:10017000000000000000000000000000000000007F
:10018000000000007F0200080000000000000000E6
:100190007F020008DFF80CD000F0D8F800480047D4
:1001A000F5180008C04200202B4B19680868B0E819
:1001B000F04F80F30988BFF36F8F4FF0000080F39A
:1001C000118870470000000006480068006880F34E
:1001D000088862B661B6BFF34F8FBFF36F8F00DF41
:1001E00000BF00BF08ED00E0DFF80C00016841F43B
:1001F00070010160704700BF88ED00E0EFF30980F7
:10020000BFF36F8F144B1A681EF0100F08BF20ED5C
:10021000108A20E9F04F106008B44FF0500080F3CE
:100220001188BFF34F8FBFF36F8F01F007FF4FF0BF
:10023000000080F3118808BC19680868B0E8F04F26
:100240001EF0100F08BFB0EC108A80F30988BFF3CE
:100250006F8F704700BF00BF38000020EFF30580AC
:10026000704700000648804706480047FEE7FEE763
:10027000FEE7FEE7FEE7FEE7FEE7FEE7FEE7FEE756
:10028000D5150008950100082DE9F05F054600200E
:1002900092469B4688460646814640241BE02846F7
:1002A00041464746224600F041F853465A46C01A96
:1002B000914110D311461846224600F028F82D1A15
:1002C00067EB01084F4622460120002100F01FF88D
:1002D00017EB00094E41201EA4F10104DFDC484663
:1002E00031462A464346BDE8F09F40EA01039B079A
:1002F00003D009E008C9121F08C0042AFAD203E09B
:1003000011F8013B00F8013B521EF9D27047202A38
:1003100004DB203A00FA02F1002070479140C2F15C
:10032000200320FA03F3194390407047202A04DB8E
:10033000203A21FA02F00021704721FA02F3D0405E
:10034000C2F120029140084319467047064C074D00
:1003500006E0E06840F0010394E807009847103495
:10036000AC42F6D3FFF71AFFDC230008FC23000899
:10037000FEE770472DE9F84FDFF860B100224FF03B
:1003800001084FF0030A4FF00F090BF1040E00BFF4
:100390000B6808FA02F42340A3426ED14D68022D87
:1003A00001D0122D0ED1D50800EB850CDCF82050C1
:1003B0005607F70E09FA07F6B5430E69BE402E43FD
:1003C000CCF82060066855000F790AFA05FC07F0A2
:1003D000030726EA0C06AF40374307604E68012E3C
:1003E00005D0022E03D0112E01D0122E0ED1866818
:1003F000CF6826EA0C06AF40374387604668A643BD
:100400000C79C4F30014944034434460C6688C688B
:1004100026EA0C06AC403443C4604C68E40056D570
:100420002F4C256845F480452560246822F003059B
:1004300004F4804400942B4C2E19D6F808489507F4
:100440002F0F09FA07F5AC43274DA84201D100252B
:1004500015E0264DA84201D1012510E0244DA84207
:1004600001D102250BE0234DA84201D1032506E06E
:10047000214DA84202D1042501E028E00725BD4016
:100480002543C6F80858DBF800405D464E689C439B
:10049000F60300D51C432C60DEF8004075464E681C
:1004A0009C43B60300D51C432C600C4D08352C68CA
:1004B0004E689C43F60200D51C432C60074D0C355A
:1004C0002C684E689C43B60200D51C432C60521C1D
:1004D000102AFFF45DAFBDE8F88F0000003C01403A
:1004E0004438024000300140000002400004024055
:1004F00000080240000C0240001002400AB1816175
:1005000070470904FBE7000001488068704700005D
:100510000400002070B5040004D094F83D000025CC
:1005200010B106E0012070BD84F83C50204600F078
:1005300075F8242084F83D002068016821F001014D
:10054000016000F0CDFA33492268B0FBF1F151604F
:10055000314A6368934206D94FF4967359434FF476
:100560007A73B1FBF3F12368491C19626168914207
:100570000BD84900B0FBF1F2C2F30B02042A01D2FE
:10058000042019E0B0FBF1F016E0A3689BB301EB87
:10059000C10202EB0112B0FBF2F242F480421205FA
:1005A00030D04BB301EBC10202EB0111B0FBF1F013
:1005B00040F4804040F400402168C861D4E907015C
:1005C000084321680860D4E9031008432168886063
:1005D000D4E9050108432168C8602068016841F03A
:1005E000010101602564202084F83D00256384F822
:1005F0003E50002070BD00E006E001EB4102B0FB80
:10060000F2F2CCE70120D7E701EB4101B0FBF1F0BA
:10061000D0E7000040420F00A08601002DE9F04124
:100620002A4B026812250126032704212848294C59
:1006300086B09A420FD1CDE90371C0228DE86400E3
:100640006946FFF797FE206840F40010206020689C
:1006500000F400101BE0204B9A421CD1CDE903713D
:1006600012158DE8640069468046FFF783FE082076
:100670008DE8E1000920049069464046FFF77AFEC4
:10068000206840F480002060206800F4800005901D
:1006900006B0BDE8F08111488242F9D18846401584
:1006A0008DE8E10169460E48FFF764FE4FF4807063
:1006B0008DE8E10169460B48FFF75CFE206840F4D5
:1006C00000002060206800F40000E0E700540040D3
:1006D000000402404038024000580040005C0040E6
:1006E000000802400000024002488168027811447C
:1006F00081607047040000200B4810B5016841F488
:1007000000710160016841F480610160016841F499
:1007100080710160032000F08BF80F2000F006F8D4
:1007200000F024F8002010BD003C024070B50D4DD3
:1007300004464FF47A712878B1FBF0F00A49096851
:10074000B1FBF0F000F011FD48B9102C07D20022E7
:100750002146501E00F04CF800206C6070BD012056
:1007600070BD000004000020100000201F4808B5E4
:10077000016841F480410160006800F4804000900D
:100780001A48001F016841F080510160006800F0C4
:1007900080500090032000F04BF8002211466FF0CB
:1007A0000B0000F025F8002211466FF00A0000F05F
:1007B0001FF8002211466FF0090000F019F800221E
:1007C0001146501F00F014F800221146101F00F0CF
:1007D0000FF800220F21901E00F00AF800220F21CE
:1007E000BDE80840501E00F003B800004438024045
:1007F000F0B40E4B1B680C46C3F30223C3F107058C
:10080000042D00D90425191D072901D2002300E079
:10081000DB1E012606FA05F1491E214099409E4043
:10082000761E16403143F0BC00F02EBE0CED00E009
:10083000064900F0070208684FF6FF03184040EA37
:100840000220034A10430860704700000CED00E0EE
:100850000000FA052DE9F843044600684FF001094D
:10086000C1074FF0000601D1400727D5DFF81C81F2
:10087000C8F86860FFF748FE0746454D05E000BF31
:10088000FFF742FEC01B022857D828680001F7D4A2
:1008900060688101207A41EA00703D498431086036
:1008A000C8F86890FFF730FE074604E0FFF72CFE1B
:1008B000C01B022841D828680001F7D5207880079E
:1008C00052D533484030016841F0805101600068E2
:1008D000304D00F080500090286840F4807028600F
:1008E000FFF712FE074604E0FFF70EFEC01B0228CA
:1008F00023D82868C005F7D5254D7035286810F431
:10090000407020D0A18901F4407181421BD0286839
:1009100020F440712048C0F80090066029602868E3
:10092000C00710D0FFF7F0FD064641F2883707E018
:10093000FFF7EAFD801BB84202D90320BDE8F88327
:1009400028688007F4D5E1681148C1F30122083016
:10095000032A12D0016821F4F81101602868A189E6
:10096000C1F30B01084328602078000703D50B4929
:10097000207CC1F8E0010020E0E70268084B22F487
:10098000F81219400A430260E8E7000000004742FD
:100990000038024000700040400E474200104742BD
:1009A000FFFCFF0F2DE9F0470E46050065D0DFF88C
:1009B0001481D8F80000F7B200F00F00B04207D25F
:1009C00088F80070D8F8000000F00F00B04254D151
:1009D00028683D4C810712D5400703D5206840F4B4
:1009E000E05020602878000703D5206840F460407C
:1009F00020602068A96820F0F00008432060287873
:100A0000C0072DD0304968680839012812D0022863
:100A100013D0032811D00968890700292DDA21682D
:100A200021F0030101432160FFF76EFD814641F291
:100A3000883A0EE009688903EFE709688901ECE765
:100A4000FFF762FDA0EB0901514502D90320BDE883
:100A5000F0872068696800F00C00B0EB810FEFD1DF
:100A6000D8F80010404601F00F01B14207D90770D5
:100A7000006800F00F00B04201D00120E7E72878BD
:100A8000400705D52068E96820F4E050084320605D
:100A90002878000706D52068296920F4604040EADC
:100AA000C100206000F03CF82168084AC1F303113E
:100AB000515CC840064908600F20FFF737FE002050
:100AC000C5E70000003C024008380240B823000897
:100AD000100000200148006870470000100000204E
:100AE0000448054900680968044AC1F38221515C41
:100AF000C84070471000002008380240C823000892
:100B00000448054900680968044AC1F34231515C50
:100B1000C84070471000002008380240C823000871
:100B2000154810B5006810F00C02144813D0144991
:100B3000042A0FD0082A0ED10F4C241F22682368E4
:100B400002F03F025B0207D52068C0F38810A0FBCB
:100B5000010106E0084610BD2168C1F38811A1FB20
:100B600000010023FFF790FB2168C1F30141491CFC
:100B70004900B0FBF1F010BD083802400024F40039
:100B800040787D012DE9F84F050076D02878DFF810
:100B9000F8B2BE4CC00749D0DBF800105846C1F38C
:100BA0008101012908D00068C0F3810002280AD120
:100BB000201D0068400206D52068800336D568688D
:100BC0000028E2D032E06868B0F5803F10D0B0F580
:100BD000A02F206810D020F480302060206820F4FE
:100BE000802020606868A0B1FFF78EFC06460CE00C
:100BF000206840F48030F4E740F480202060F7E77C
:100C0000FFF782FC801B642873D820688003F7D527
:100C10000CE0FFF779FC064605E000BFFFF774FC27
:100C2000801B6428F0D820688003F7D42878DFF888
:100C3000608280074FF000093ED5DBF8001058466F
:100C400011F00C0F09D00068C0F3810002280BD10D
:100C50008D48001F0068400206D42068800715D523
:100C6000E868012809D111E0E868B8B10120C8F8A6
:100C70000000FFF749FC064605E002E1FFF744FCEF
:100C8000801B0228C0D820688007F7D52068296912
:100C900020F0F80040EAC10020600DE0C8F80090A4
:100CA000FFF732FC064604E0FFF72EFC801B02280B
:100CB0001FD820688007F7D42878000722D5724E05
:100CC000744869696C3671B101210160FFF71CFC41
:100CD000074604E0FFF718FCC01B022809D830685B
:100CE0008007F7D50EE0C0F80090FFF70DFC07462F
:100CF00005E083E0FFF708FCC01B02287ED83068BF
:100D00008007F7D42878400768D5DFF87CA1002752
:100D10000AF1380ADAF80000C0000BD4DAF8001043
:100D200041F08051CAF80010DAF80000012700F005
:100D300080500090584E3068C00510D4306840F4A0
:100D400080703060FFF7E0FB009005E0FFF7DCFB10
:100D50000099401A022851D83068C005F6D54A4E8D
:100D6000A868683601280FD00528306810D020F018
:100D700001003060306820F004003060A868B8B12D
:100D8000FFF7C2FB00900FE0306840F00100F4E78D
:100D900040F004003060F7E7FFF7B6FB0099411A16
:100DA00041F28830814264D830688007F4D50EE083
:100DB000FFF7AAFB009007E0FFF7A6FB0099411A96
:100DC00041F28830814254D830688007F4D42FB182
:100DD000DAF8001021F08051CAF80010A869C0B3F9
:100DE000DBF80010C1F3810102294AD002284846ED
:100DF00007D0C8F86000FFF787FB00E039E0054640
:100E00003AE04746C8F86000FFF77EFB064604E07C
:100E1000FFF77AFB801B02282BD820688001F7D4CB
:100E2000D5E907010843A96A1C4A490802EB0141B8
:100E30006A6A41EA8211084395F82C1040EA016180
:100E40001148001F016001203866FFF75DFB054671
:100E500005E014E0FFF758FB401B022809D8206882
:100E60008001F7D50BE000BFFFF74EFB401B0228C7
:100E700002D90320BDE8F88F20688001F4D4002057
:100E8000F8E70120F6E70000083802400038024089
:100E900000004742800E4742007000400000FFFF04
:100EA00070B5040002D0607F10B106E0012070BD73
:100EB00000202077204600F049F802206077216862
:100EC000CA204862216853204862204600F000FB97
:100ED000FF25042618BB206881681B4A11408160E9
:100EE0002168886862681043D4E904231A431043D8
:100EF00088602168E068086120680169228941EA08
:100F0000024101612068C16821F08001C160206850
:100F10008068800607D4204600F000F918B12068E8
:100F200045626677C2E72068016C21F48021016484
:100F30002068016CA26911430164206845620120A8
:100F40006077002070BD0000BFFF8FFF006803497D
:100F5000884202D102490120086070470028004001
:100F60003C0E47422DE9F0470446007F0B4601281E
:100F70001FD04FF0010984F81C9002206077DAB18D
:100F80009878D97840EA014558781978000240EA03
:100F9000413005432168CA204862216853204862D5
:100FA000204600F095FA0026FF274FF0040860BBAA
:100FB0001AE00220BDE8F0875878C10603D500F09A
:100FC000EF000A305870D87800F077FA02045878A9
:100FD00000F073FA42EA0022987800F06EFA0243B9
:100FE000187842EA4035D5E70F480540206845604B
:100FF0002068C16821F08001C16020688068800697
:101000000AD4204600F08AF830B12068476284F89C
:101010001D8026770120CDE72068476284F81D9067
:1010200026770020C6E700003FFFFF002DE9F047CC
:101030000446007F0D46012811D04FF0010A84F8C4
:101040001CA0022060772068002680684FEA40607C
:1010500042B100281ADA287800F026FA17E00220B8
:10106000BDE8F087002800DBEE70287800F025FA54
:101070000204687800F021FA42EA0022A87800F021
:101080001CFA0243E87842EA00470AE0EE70A878CA
:10109000297840EA01476878E978000240EA01408F
:1010A00007432168CA2048622168532048622046CD
:1010B00000F00EFA4FF0FF084FF00409E0B91648AF
:1010C0000740206807602068816821F480218160E2
:1010D000D5E90301084321688A68104388602068C5
:1010E000C16821F08001C1602068806880060BD44F
:1010F000204600F013F838B12168C1F8248084F844
:101100001D9026770120ABE72168C1F8248084F880
:101110001DA026770020A3E77F7F7F0070B50446DF
:101120000068C16821F0A001C160FFF7EDF9054634
:101130004FF47A7607E000BFFFF7E6F9401BB042B4
:1011400001D9032070BD2068C0688006F4D5002056
:1011500070BD4FF0E0210428086903D020F004009E
:101160000861704740F00400FAE710B5401EB0F186
:10117000807F01D3012010BD4FF0E02460610F217A
:10118000601700F081F90020A06107202061002095
:1011900010BD70B5040004D094F83900002510B1DA
:1011A00006E0012070BD84F83850204600F022F897
:1011B000242084F839002068C16821F40051C160FE
:1011C000204600F031FA2068016921F49041016164
:1011D0002068416921F02A0141612068C16841F419
:1011E0000051C160E563202084F8390084F83A009A
:1011F000002070BD00B500680E4987B0884216D146
:101200000D48016841F4003101600068694600F44E
:10121000003005900C2000900220019001200290E7
:1012200003200390072004900448FFF7A3F807B0B9
:1012300000BD000000440040403802400000024071
:10124000FEE700002DE9F043424887B00024016822
:1012500041F004010160016801F004010591016899
:1012600041F001010160016801F00101059101688F
:1012700041F002010160016801F00201059101687D
:1012800041F0080101600068334F00F0080040F6AB
:10129000CE160590002231463846FFF72FF9DFF8C9
:1012A000BC9041F29365002229464846FFF726F993
:1012B000DFF8AC80002224214046FFF71FF900969A
:1012C0000126CDE90164694638460394FFF752F8D8
:1012D0000095CDE90164694648460394FFF74AF852
:1012E000204D41F23000CDE90005694602943846B0
:1012F000FFF740F84CF20130CDE900056946029451
:101300004046FFF737F802200090CDE901040F2096
:10131000CDE9034069464046FFF72CF824200090B1
:10132000CDE90164694640460394FFF723F8F002D3
:10133000CDE90005694602944846FFF71BF80420F2
:10134000CDE90005694602940748FFF713F807B096
:10135000BDE8F0833038024000080240000002403F
:101360000004024000001110000C02400B4810B5B0
:10137000094901600A49416000214FF480428160BF
:10138000C0E9031241618161C1610162FFF7C2F8E6
:10139000002800D0FEE710BD00540040740000207B
:1013A000A08601000B4810B5094901600A49416057
:1013B00000214FF480428160C0E9031241618161E4
:1013C000C1610162FFF7A6F8002800D0FEE710BD5A
:1013D00000580040C8000020A08601000B4810B54E
:1013E000094901600A49416000214FF4804281604F
:1013F000C0E9031241618161C1610162FFF78AF8AE
:10140000002800D0FEE710BD005C00401C01002059
:10141000A086010010B51A4886B018490024C0E91A
:1014200000147F218160FF21C0E9031444618461BD
:10143000FFF736FD00B1FEE78DF800408DF8014062
:101440008DF802400394012269460D480494FFF789
:10145000EDFD00B1FEE701208DF814008DF81500B8
:101460008DF8160002468DF8174005A90448FFF7CD
:1014700079FD002800D0FEE706B010BD002800402E
:1014800070010020FEE770470907090E002806DA00
:1014900000F00F0000F1E02080F8141D704700F10B
:1014A000E02080F800147047010901EB810100F091
:1014B0000F0000EB4100C0B27047002102E00A3883
:1014C000C0B2491C0A28FAD2090740EA11607047E5
:1014D00070B504460068C168490614D44FF0FF3166
:1014E000C160FFF711F805464FF47A7607E000BFB8
:1014F000FFF70AF8401BB04201D9032070BD2068F5
:10150000C0684006F4D5002070BD012000F030FA1C
:10151000FBE710B5FFF7E8F8BDE8104000F034BA7B
:1015200030B52A4897B00024016841F0805101602D
:10153000006800F0805016902548016821F4404171
:1015400041F4004101600068022500F4404016901B
:101550000620009001200290039010200695049030
:10156000CDE90740A820CDE9090504200B90684685
:10157000FFF708FB00B1FEE70F20CDE90C054FF4A3
:101580008050CDE90E4002210CA81094FFF70AFA12
:1015900000B1FEE74FF480701490119511A8FFF789
:1015A00059F900B1FEE7FFF795FA4FF47A71B0FBF5
:1015B000F1F0FFF7DAFD0420FFF7CBFD00220F2149
:1015C000501EFFF715F917B030BD0000403802403B
:1015D000007000401048016841F4700101600F483C
:1015E000016841F0010101600C4A002108321160DC
:1015F00002680B4B1A400260031D0A4A1A60026817
:1016000022F48022026005480C300160024958062D
:10161000803908607047000088ED00E00038024023
:10162000FFFFF6FE103000242DE9F041044600686B
:10163000016921F44052E168114301612168C868E1
:1016400049F20C6290432369A268E5691A43636911
:101650002B431A430243CA602168486920F4407250
:10166000A06910434861E1696425B1F5004F9748CE
:10167000974A21684FF032083FD0914201D0814211
:101680007CD1FFF73DFA00EBC00101EB001061686F
:101690008900B0FBF1F6FFF733FA00EBC00101EB74
:1016A000001061688900B0FBF1F0B0FBF5F06FF05D
:1016B0001801484306EB800108EB0110B0FBF5F080
:1016C00000F0F006FFF71CFA00EBC00101EB001080
:1016D00061688900B0FBF1F0B0FBF5F006EB001695
:1016E000FFF70EFA00EBC00101EB00106168890002
:1016F000B0FBF1F7FFF704FAD2E0914201D081424A
:101700003DD1FFF7FDF900EBC00101EB001061686E
:101710004900B0FBF1F0B0FBF5F00601FFF7F0F97E
:1017200000EBC00101EB001061684900B0FBF1F76C
:10173000FFF7E6F900EBC00101EB0010616849001A
:10174000B0FBF1F0B0FBF5F06FF01801484307EB88
:10175000800108EBC100B0FBF5F000F0F80006EBEB
:101760004006FFF7CDF900EBC00101EB0010616806
:101770004900B0FBF1F7FFF7C3F93CE055E0FFF794
:10178000AFF900EBC00101EB001061684900B0FB4C
:10179000F1F0B0FBF5F00601FFF7A2F900EBC00194
:1017A00001EB001061684900B0FBF1F7FFF798F911
:1017B00000EBC00101EB001061684900B0FBF1F0E3
:1017C000B0FBF5F06FF01801484307EB800108EB20
:1017D000C100B0FBF5F000F0F80006EB4006FFF7A3
:1017E0007FF900EBC00101EB001061684900B0FB1C
:1017F000F1F7FFF775F900EBC00101EB001061682C
:101800004900B0FBF1F0B0FBF5F06FF01801484370
:1018100007EB800108EBC100B0FBF5F000F007001A
:10182000216830448860BDE8F081FFF759F900EB8A
:10183000C00101EB001061688900B0FBF1F6FFF711
:101840004FF900EBC00101EB001061688900B0FBAB
:10185000F1F0B0FBF5F06FF01801484306EB8001A2
:1018600008EB0110B0FBF5F000F0F006FFF738F9D7
:1018700000EBC00101EB001061688900B0FBF1F0E2
:10188000B0FBF5F006EB0016FFF72AF900EBC001FC
:1018900001EB001061688900B0FBF1F7FFF720F958
:1018A00000EBC00101EB001061688900B0FBF1F0B2
:1018B000B0FBF5F06FF01801484307EB800108EB2F
:1018C0000110B0FBF5F000F00F00A9E70014014093
:1018D00000100140FEE702E008C8121F08C1002AFC
:1018E000FAD170477047002001E001C1121F002AA1
:1018F000FBD1704786B0FEF7FFFEFFF711FEFFF742
:10190000A1FCFFF733FD144812490C2201604FF48B
:10191000E131416000218160C160C0E90412816150
:10192000C161FFF736FC00B1FEE7FFF773FDFFF77B
:1019300055FDFFF737FD142208496846FEF7D5FC30
:101940000021684600F02AF80549086000F017F801
:10195000FEE700000044004090010020A42300089E
:101960000000002001460020842900D0C81C7047D8
:1019700010B500B9012000F0FFFA002010BD10B52D
:1019800000F020FB002010BD10B500F037FC01284E
:1019900003D0BDE8104000F0EFBB10BD3EB50446DB
:1019A0000D46B0F90800FFF7DDFF02A9CDE90001FF
:1019B000208A2B4682B2D4E9001000F0F3FB012804
:1019C00001D000203EBD02983EBD00002DE9F0414F
:1019D000184C0F460546E6682068001D00F016FA10
:1019E00038B9206890F82C10012088402169814383
:1019F0002161681C07D137B12168BDE8F0410E486C
:101A0000091D00F03BBA20683544B54245602168A5
:101A100005D2A06BBDE8F041091D00F017BA606B5C
:101A2000091D00F013FAA06A854200D2A562BDE844
:101A3000F081000038000020AC3E00202DE9F0418C
:101A4000054600F027FA2E4CA068401CA0602068D4
:101A50002C4F10B1606940B32DE02560A0680128CB
:101A600029D1002606EB860007EB800000F0E0F9A4
:101A7000761C072EF6D323488C3000F0D9F9214884
:101A8000A03000F0D5F91F48B43000F0D1F91D485E
:101A9000C83000F0CDF91B48DC3000F0C9F9194816
:101AA0008C3060631430A06305E02068E96AC06A86
:101AB000884200D82560606A401C6062E96A0120A3
:101AC000226988401043206101EB810007EB800010
:101AD000291D00F0D3F900F0FDF9606900280CD051
:101AE0002068E96AC06A884207D207494FF08050EF
:101AF0000860BFF34F8FBFF36F8FBDE8F081000028
:101B000038000020D03D002004ED00E070B5114EFB
:101B1000114C17E000F08AFA3068B8B100F0E0FB31
:101B200000F0B8F9F068C568281D00F06FF9A068EA
:101B3000401EA0606068401E606000F0CBF928463F
:101B400000F00CF860680028E4D170BD00F0C8FB1C
:101B5000F8E70000983E00203800002010B5044649
:101B6000006B00F0CBF92046BDE8104000F0C6B98C
:101B700010484FF47051420706D0C01D0D4920F0A7
:101B80000700411AC1F570510B4A00230144C2E914
:101B900000030839103A21F0070111604B600B6017
:101BA0000B1AC0E9001393604FF000405360D060FF
:101BB00070470000D001002024000020074C4FF0A7
:101BC0008056074DFFF7A2FF20680128FAD92E6042
:101BD000BFF34F8FBFF36F8FF4E70000D03D0020BD
:101BE00004ED00E02DE9F0479A46DDE909848146DD
:101BF0006FF00303206B03EB82021044089D20F07A
:101C00000706700707D0502080F31188BFF34F8F6D
:101C1000BFF36F8FFEE723180A5C83F834200A5C59
:101C200012B1401C1028F6D3002784F84370072D0A
:101C300000D30625E562C4E91157201D00F003F921
:101C400004F1180000F0FFF82461C5F10700646298
:101C5000A061E76484F8507052464946304600F06F
:101C6000BFF82060B8F1000F01D0C8F80040BDE80F
:101C7000F087000030B5114900E011460A68824241
:101C8000FBD34B685C18844203D140681844486019
:101C9000084643681C18944209D1084C103C24683B
:101CA000A24209D052681A4442600A68126802606F
:101CB000814200D0086030BD0460F9E724000020B4
:101CC0000648416B096829B1416BC968C968496810
:101CD000816270474FF0FF31FAE7000038000020C2
:101CE00008484068401C4FF0500080F3118804D031
:101CF000BFF34F8FBFF36F8FFEE7BFF34F8FBFF37D
:101D00006F8FFEE72C0000202DE9F04105460027EB
:101D100000F08CF9314E306808B9FFF729FFF06800
:101D200005424BD1C5B3083568070ED005F0070052
:101D3000C0F108000544680707D0502080F31188DF
:101D4000BFF34F8FBFF36F8FFEE72DB370688542EF
:101D500034D82248103001460C6801E020460C4679
:101D60006168A94202D221680029F7D131688C420A
:101D700024D007682168016060680837411B10297A
:101D80000FD96019420708D0502080F31188BFF3A3
:101D90004F8FBFF36F8FFEE710E041606560FFF784
:101DA00069FF61687068401A7060B268904200D242
:101DB000B060F06801430020C4E9000100F090FA2F
:101DC000780707D0502080F31188BFF34F8FBFF3FF
:101DD0006F8FFEE73846BDE8F08100001400002058
:101DE00010B5031F4FF080741C601B1F21F0010110
:101DF0001960191F044B0B6014390A60091F6FF03A
:101E0000020244380A6010BDE11C0008D0E901322A
:101E100001699A60D0E901235A604A68824201D17F
:101E200082684A60002202610868401E08607047AC
:101E300000F108014FF0FF32C0E90112C1600161F9
:101E400000210160704700210161704730B50B68C7
:101E50005A1C02D000F1080202E0026904E02246A6
:101E6000546825689D42FAD953684B6099608A602E
:101E7000516008610168491C016030BD42684A60D8
:101E800093688B6093685960916008610168491C90
:101E900001607047502080F31188BFF34F8FBFF36C
:101EA0006F8F0A494868401C486001280CD10848D7
:101EB000006810F0FF0F07D0502080F31188BFF3A7
:101EC0004F8FBFF36F8FFEE7704700002C0000209C
:101ED00004ED00E00849486828B1401E486001D17F
:101EE00080F311887047502080F31188BFF34F8F23
:101EF000BFF36F8FFEE700002C00002070B50028B4
:101F000027D0144DA0F108046168E868014207D1A8
:101F1000502080F31188BFF34F8FBFF36F8FFEE720
:101F200022683AB1502080F31188BFF34F8FBFF37E
:101F30006F8FFEE78143616000F078F86068696840
:101F4000084468602046FFF795FEBDE8704000F049
:101F5000C7B970BD1400002006484FF47A710068BC
:101F6000B0FBF1F14FF0E020491E41610721016112
:101F7000704700001000002010B5020014D00F4878
:101F8000006B38B1502080F31188BFF34F8FBFF33F
:101F90006F8FFEE700F04AF800211046FFF716FDAC
:101FA00000F09EF9002807D105494FF080500860E5
:101FB000BFF34F8FBFF36F8F10BD000038000020BC
:101FC00004ED00E01CB515480024CDE9004023468F
:101FD000802213A1144800F0E5F8012809D0401C24
:101FE0001AD1502080F31188BFF34F8FBFF36F8F4A
:101FF000FEE7502080F31188BFF34F8FBFF36F8F40
:1020000006484FF0FF312C38816201214161C460E4
:10201000BDE81C4000F040B81CBD0000640000207A
:1020200049444C4500000000BD1B00080248016BFC
:10203000491C016370470000380000201448016B00
:1020400011B10121C16170470021C1610169B1FA7B
:1020500081F1C1F11F0101EB81020E4951F82230DB
:102060006BB101EB820101F108034A6852684A60D2
:102070009A4201D152684A60D1680160704750208D
:1020800080F31188BFF34F8FBFF36F8FFEE700001F
:1020900038000020D03D00201CB532480168324A8B
:1020A000914207D1502080F31188BFF34F8FBFF3C7
:1020B0006F8FFEE700682C49491E884207D15020E7
:1020C00080F31188BFF34F8FBFF36F8FFEE727496F
:1020D00008780190FF20087008788DF800009DF8BE
:1020E00000009DF8002000F0F000904207D0502042
:1020F00080F31188BFF34F8FBFF36F8FFEE79DF81A
:1021000000001B4A00F0500010700720906005E0AE
:102110009DF800305B008DF80030401E9DF80030C7
:102120001B06F5D4000200F4E0609060019808708E
:102130000C482030016841F470010160016841F0F1
:1021400070410160FFF708FF00205060FEF74CF877
:102150000848016841F040410160FEF735F8002071
:102160001CBD000000ED00E071C20F4100E400E082
:102170002C00002034EF00E010B5502080F31188CF
:10218000BFF34F8FBFF36F8F00F046F818B10449CB
:102190004FF080500860002080F3118810BD0000CF
:1021A00004ED00E02DE9FF5F8346DDE90E879946E7
:1021B00016468A469000FFF7A7FD05001AD0542066
:1021C000FFF7A2FD040012D025630021CDE90241F2
:1021D000CDE900874B46324651465846FFF702FD8F
:1021E0002046FFF72BFC012004B0BDE8F09F2846F5
:1021F000FFF784FE4FF0FF30F6E700000548416925
:1022000019B1006B18B100207047012070470220FF
:1022100070470000380000202DE9F0412E4C0027C7
:10222000206B40B1A069401CA061E06900B10127AA
:102230003846BDE8F081E668761CE66013D1606B35
:10224000006838B1502080F31188BFF34F8FBFF37F
:102250006F8FFEE7606BA16B6163A063206A401C17
:102260002062FFF72DFDA06ADFF87080864209D357
:10227000606B006880B1606BC068C5686868864242
:102280000DD2A0622068C06A00EB800158F82100DE
:102290000128CAD90127C8E74FF0FF30F1E7281D10
:1022A000FFF7B4FDA86A18B105F11800FFF7AEFDFD
:1022B000E86A0121226981401143216100EB80011C
:1022C00008EB8100291DFFF7D9FDE86A2168C96A7A
:1022D0008842CDD30127CBE738000020D03D002035
:1022E0002DE9F0472C4D00242746286B38B1FFF725
:1022F000D1FD286B401E2863286B40B146E050207A
:1023000080F31188BFF34F8FBFF36F8FFEE7A9688B
:10231000224E0120D1B3A6F1B40980463068E8B15D
:10232000F068C46804F11800FFF770FD201DFFF786
:102330006DFDE06A2A6908FA00F11143296100EB9A
:10234000800109EB8100211DFFF798FDE06A2968F3
:10235000C96A8842E2D3C5F81C80DFE70CB1FFF7F9
:10236000AFFCAC6944B14646FFF756FF00B1EE61E1
:10237000641EF9D10020A861E86938B10849012735
:1023800038070860BFF34F8FBFF36F8FFFF7A2FDD1
:102390003846BDE8F087000038000020843E002069
:1023A00004ED00E0D02300080B1500080000000039
:1023B000000000008000000000000000000000009D
:1023C00001020304060708090000000001020304DB
:1023D00064656661756C745461736B00FC2300085E
:1023E0000000002074000000D618000870240008C7
:1023F000740000204C420000E618000800000000B5
:102400000100000010000000000000000024F400A3
:1024100000000000000000000000000000000000BC
:10242000000000000000000000000000AAAAAAAA04
:10243000000000000000000000000000000000009C
:10244000000000000000000000000000000000008C
:10245000000000000000000000000000000000007C
:10246000000000000000000000000000000000006C
:040000050800019559
:00000001FF
